{
  "_format": "hh-sol-artifact-1",
  "contractName": "FaizFriends",
  "sourceName": "contracts/FaizFriends.sol",
  "abi": [
    {
      "inputs": [
        {
          "internalType": "string",
          "name": "baseURI",
          "type": "string"
        },
        {
          "internalType": "address",
          "name": "whitelistContract",
          "type": "address"
        }
      ],
      "stateMutability": "nonpayable",
      "type": "constructor"
    },
    {
      "anonymous": false,
      "inputs": [
        {
          "indexed": true,
          "internalType": "address",
          "name": "owner",
          "type": "address"
        },
        {
          "indexed": true,
          "internalType": "address",
          "name": "approved",
          "type": "address"
        },
        {
          "indexed": true,
          "internalType": "uint256",
          "name": "tokenId",
          "type": "uint256"
        }
      ],
      "name": "Approval",
      "type": "event"
    },
    {
      "anonymous": false,
      "inputs": [
        {
          "indexed": true,
          "internalType": "address",
          "name": "owner",
          "type": "address"
        },
        {
          "indexed": true,
          "internalType": "address",
          "name": "operator",
          "type": "address"
        },
        {
          "indexed": false,
          "internalType": "bool",
          "name": "approved",
          "type": "bool"
        }
      ],
      "name": "ApprovalForAll",
      "type": "event"
    },
    {
      "anonymous": false,
      "inputs": [
        {
          "indexed": true,
          "internalType": "address",
          "name": "previousOwner",
          "type": "address"
        },
        {
          "indexed": true,
          "internalType": "address",
          "name": "newOwner",
          "type": "address"
        }
      ],
      "name": "OwnershipTransferred",
      "type": "event"
    },
    {
      "anonymous": false,
      "inputs": [
        {
          "indexed": true,
          "internalType": "address",
          "name": "from",
          "type": "address"
        },
        {
          "indexed": true,
          "internalType": "address",
          "name": "to",
          "type": "address"
        },
        {
          "indexed": true,
          "internalType": "uint256",
          "name": "tokenId",
          "type": "uint256"
        }
      ],
      "name": "Transfer",
      "type": "event"
    },
    {
      "stateMutability": "payable",
      "type": "fallback"
    },
    {
      "inputs": [],
      "name": "_paused",
      "outputs": [
        {
          "internalType": "bool",
          "name": "",
          "type": "bool"
        }
      ],
      "stateMutability": "view",
      "type": "function"
    },
    {
      "inputs": [],
      "name": "_price",
      "outputs": [
        {
          "internalType": "uint256",
          "name": "",
          "type": "uint256"
        }
      ],
      "stateMutability": "view",
      "type": "function"
    },
    {
      "inputs": [
        {
          "internalType": "address",
          "name": "to",
          "type": "address"
        },
        {
          "internalType": "uint256",
          "name": "tokenId",
          "type": "uint256"
        }
      ],
      "name": "approve",
      "outputs": [],
      "stateMutability": "nonpayable",
      "type": "function"
    },
    {
      "inputs": [
        {
          "internalType": "address",
          "name": "owner",
          "type": "address"
        }
      ],
      "name": "balanceOf",
      "outputs": [
        {
          "internalType": "uint256",
          "name": "",
          "type": "uint256"
        }
      ],
      "stateMutability": "view",
      "type": "function"
    },
    {
      "inputs": [
        {
          "internalType": "uint256",
          "name": "tokenId",
          "type": "uint256"
        }
      ],
      "name": "getApproved",
      "outputs": [
        {
          "internalType": "address",
          "name": "",
          "type": "address"
        }
      ],
      "stateMutability": "view",
      "type": "function"
    },
    {
      "inputs": [
        {
          "internalType": "address",
          "name": "owner",
          "type": "address"
        },
        {
          "internalType": "address",
          "name": "operator",
          "type": "address"
        }
      ],
      "name": "isApprovedForAll",
      "outputs": [
        {
          "internalType": "bool",
          "name": "",
          "type": "bool"
        }
      ],
      "stateMutability": "view",
      "type": "function"
    },
    {
      "inputs": [],
      "name": "maxTokenIds",
      "outputs": [
        {
          "internalType": "uint256",
          "name": "",
          "type": "uint256"
        }
      ],
      "stateMutability": "view",
      "type": "function"
    },
    {
      "inputs": [],
      "name": "mint",
      "outputs": [],
      "stateMutability": "payable",
      "type": "function"
    },
    {
      "inputs": [],
      "name": "name",
      "outputs": [
        {
          "internalType": "string",
          "name": "",
          "type": "string"
        }
      ],
      "stateMutability": "view",
      "type": "function"
    },
    {
      "inputs": [],
      "name": "owner",
      "outputs": [
        {
          "internalType": "address",
          "name": "",
          "type": "address"
        }
      ],
      "stateMutability": "view",
      "type": "function"
    },
    {
      "inputs": [
        {
          "internalType": "uint256",
          "name": "tokenId",
          "type": "uint256"
        }
      ],
      "name": "ownerOf",
      "outputs": [
        {
          "internalType": "address",
          "name": "",
          "type": "address"
        }
      ],
      "stateMutability": "view",
      "type": "function"
    },
    {
      "inputs": [],
      "name": "presaleEnded",
      "outputs": [
        {
          "internalType": "uint256",
          "name": "",
          "type": "uint256"
        }
      ],
      "stateMutability": "view",
      "type": "function"
    },
    {
      "inputs": [],
      "name": "presaleMint",
      "outputs": [],
      "stateMutability": "payable",
      "type": "function"
    },
    {
      "inputs": [],
      "name": "presaleStarted",
      "outputs": [
        {
          "internalType": "bool",
          "name": "",
          "type": "bool"
        }
      ],
      "stateMutability": "view",
      "type": "function"
    },
    {
      "inputs": [],
      "name": "renounceOwnership",
      "outputs": [],
      "stateMutability": "nonpayable",
      "type": "function"
    },
    {
      "inputs": [
        {
          "internalType": "address",
          "name": "from",
          "type": "address"
        },
        {
          "internalType": "address",
          "name": "to",
          "type": "address"
        },
        {
          "internalType": "uint256",
          "name": "tokenId",
          "type": "uint256"
        }
      ],
      "name": "safeTransferFrom",
      "outputs": [],
      "stateMutability": "nonpayable",
      "type": "function"
    },
    {
      "inputs": [
        {
          "internalType": "address",
          "name": "from",
          "type": "address"
        },
        {
          "internalType": "address",
          "name": "to",
          "type": "address"
        },
        {
          "internalType": "uint256",
          "name": "tokenId",
          "type": "uint256"
        },
        {
          "internalType": "bytes",
          "name": "data",
          "type": "bytes"
        }
      ],
      "name": "safeTransferFrom",
      "outputs": [],
      "stateMutability": "nonpayable",
      "type": "function"
    },
    {
      "inputs": [
        {
          "internalType": "address",
          "name": "operator",
          "type": "address"
        },
        {
          "internalType": "bool",
          "name": "approved",
          "type": "bool"
        }
      ],
      "name": "setApprovalForAll",
      "outputs": [],
      "stateMutability": "nonpayable",
      "type": "function"
    },
    {
      "inputs": [
        {
          "internalType": "bool",
          "name": "val",
          "type": "bool"
        }
      ],
      "name": "setPaused",
      "outputs": [],
      "stateMutability": "nonpayable",
      "type": "function"
    },
    {
      "inputs": [],
      "name": "startPresale",
      "outputs": [],
      "stateMutability": "nonpayable",
      "type": "function"
    },
    {
      "inputs": [
        {
          "internalType": "bytes4",
          "name": "interfaceId",
          "type": "bytes4"
        }
      ],
      "name": "supportsInterface",
      "outputs": [
        {
          "internalType": "bool",
          "name": "",
          "type": "bool"
        }
      ],
      "stateMutability": "view",
      "type": "function"
    },
    {
      "inputs": [],
      "name": "symbol",
      "outputs": [
        {
          "internalType": "string",
          "name": "",
          "type": "string"
        }
      ],
      "stateMutability": "view",
      "type": "function"
    },
    {
      "inputs": [
        {
          "internalType": "uint256",
          "name": "index",
          "type": "uint256"
        }
      ],
      "name": "tokenByIndex",
      "outputs": [
        {
          "internalType": "uint256",
          "name": "",
          "type": "uint256"
        }
      ],
      "stateMutability": "view",
      "type": "function"
    },
    {
      "inputs": [],
      "name": "tokenIds",
      "outputs": [
        {
          "internalType": "uint256",
          "name": "",
          "type": "uint256"
        }
      ],
      "stateMutability": "view",
      "type": "function"
    },
    {
      "inputs": [
        {
          "internalType": "address",
          "name": "owner",
          "type": "address"
        },
        {
          "internalType": "uint256",
          "name": "index",
          "type": "uint256"
        }
      ],
      "name": "tokenOfOwnerByIndex",
      "outputs": [
        {
          "internalType": "uint256",
          "name": "",
          "type": "uint256"
        }
      ],
      "stateMutability": "view",
      "type": "function"
    },
    {
      "inputs": [
        {
          "internalType": "uint256",
          "name": "tokenId",
          "type": "uint256"
        }
      ],
      "name": "tokenURI",
      "outputs": [
        {
          "internalType": "string",
          "name": "",
          "type": "string"
        }
      ],
      "stateMutability": "view",
      "type": "function"
    },
    {
      "inputs": [],
      "name": "totalSupply",
      "outputs": [
        {
          "internalType": "uint256",
          "name": "",
          "type": "uint256"
        }
      ],
      "stateMutability": "view",
      "type": "function"
    },
    {
      "inputs": [
        {
          "internalType": "address",
          "name": "from",
          "type": "address"
        },
        {
          "internalType": "address",
          "name": "to",
          "type": "address"
        },
        {
          "internalType": "uint256",
          "name": "tokenId",
          "type": "uint256"
        }
      ],
      "name": "transferFrom",
      "outputs": [],
      "stateMutability": "nonpayable",
      "type": "function"
    },
    {
      "inputs": [
        {
          "internalType": "address",
          "name": "newOwner",
          "type": "address"
        }
      ],
      "name": "transferOwnership",
      "outputs": [],
      "stateMutability": "nonpayable",
      "type": "function"
    },
    {
      "inputs": [],
      "name": "withdraw",
      "outputs": [],
      "stateMutability": "nonpayable",
      "type": "function"
    },
    {
      "stateMutability": "payable",
      "type": "receive"
    }
  ],
  "bytecode": "0x6080604052662386f26fc10000600c556014600e553480156200002157600080fd5b506040516200412438038062004124833981810160405281019062000047919062000370565b6040518060400160405280600c81526020017f4661697a20467269656e647300000000000000000000000000000000000000008152506040518060400160405280600281526020017f46460000000000000000000000000000000000000000000000000000000000008152508160009080519060200190620000cb92919062000237565b508060019080519060200190620000e492919062000237565b50505062000107620000fb6200016960201b60201c565b6200017160201b60201c565b81600b90805190602001906200011f92919062000237565b5080601060006101000a81548173ffffffffffffffffffffffffffffffffffffffff021916908373ffffffffffffffffffffffffffffffffffffffff160217905550505062000588565b600033905090565b6000600a60009054906101000a900473ffffffffffffffffffffffffffffffffffffffff16905081600a60006101000a81548173ffffffffffffffffffffffffffffffffffffffff021916908373ffffffffffffffffffffffffffffffffffffffff1602179055508173ffffffffffffffffffffffffffffffffffffffff168173ffffffffffffffffffffffffffffffffffffffff167f8be0079c531659141344cd1fd0a4f28419497f9722a3daafe3b4186f6b6457e060405160405180910390a35050565b828054620002459062000493565b90600052602060002090601f016020900481019282620002695760008555620002b5565b82601f106200028457805160ff1916838001178555620002b5565b82800160010185558215620002b5579182015b82811115620002b457825182559160200191906001019062000297565b5b509050620002c49190620002c8565b5090565b5b80821115620002e3576000816000905550600101620002c9565b5090565b6000620002fe620002f884620003f3565b620003ca565b9050828152602081018484840111156200031757600080fd5b620003248482856200045d565b509392505050565b6000815190506200033d816200056e565b92915050565b600082601f8301126200035557600080fd5b815162000367848260208601620002e7565b91505092915050565b600080604083850312156200038457600080fd5b600083015167ffffffffffffffff8111156200039f57600080fd5b620003ad8582860162000343565b9250506020620003c0858286016200032c565b9150509250929050565b6000620003d6620003e9565b9050620003e48282620004c9565b919050565b6000604051905090565b600067ffffffffffffffff8211156200041157620004106200052e565b5b6200041c826200055d565b9050602081019050919050565b600062000436826200043d565b9050919050565b600073ffffffffffffffffffffffffffffffffffffffff82169050919050565b60005b838110156200047d57808201518184015260208101905062000460565b838111156200048d576000848401525b50505050565b60006002820490506001821680620004ac57607f821691505b60208210811415620004c357620004c2620004ff565b5b50919050565b620004d4826200055d565b810181811067ffffffffffffffff82111715620004f657620004f56200052e565b5b80604052505050565b7f4e487b7100000000000000000000000000000000000000000000000000000000600052602260045260246000fd5b7f4e487b7100000000000000000000000000000000000000000000000000000000600052604160045260246000fd5b6000601f19601f8301169050919050565b620005798162000429565b81146200058557600080fd5b50565b613b8c80620005986000396000f3fe6080604052600436106101d15760003560e01c80634f6ccce7116100f75780638da5cb5b11610095578063c87b56dd11610064578063c87b56dd1461061a578063e580b2b014610657578063e985e9c514610682578063f2fde38b146106bf576101d8565b80638da5cb5b1461057257806395d89b411461059d578063a22cb465146105c8578063b88d4fde146105f1576101d8565b80636352211e116100d15780636352211e146104b657806370a08231146104f3578063714cff5614610530578063715018a61461055b576101d8565b80634f6ccce71461044457806359533d6c146104815780635f7696211461048b576101d8565b806316c38b3c1161016f57806323b872dd1161013e57806323b872dd1461039e5780632f745c59146103c75780633ccfd60b1461040457806342842e0e1461041b576101d8565b806316c38b3c146102f457806316c61ccc1461031d57806318160ddd14610348578063235b6ea114610373576101d8565b806306fdde03116101ab57806306fdde0314610259578063081812fc14610284578063095ea7b3146102c15780631249c58b146102ea576101d8565b806301ffc9a7146101da57806304549d6f1461021757806304c98b2b14610242576101d8565b366101d857005b005b3480156101e657600080fd5b5061020160048036038101906101fc91906129c2565b6106e8565b60405161020e9190612ed2565b60405180910390f35b34801561022357600080fd5b5061022c610762565b6040516102399190612ed2565b60405180910390f35b34801561024e57600080fd5b50610257610775565b005b34801561026557600080fd5b5061026e6107ae565b60405161027b9190612eed565b60405180910390f35b34801561029057600080fd5b506102ab60048036038101906102a69190612a14565b610840565b6040516102b89190612e6b565b60405180910390f35b3480156102cd57600080fd5b506102e860048036038101906102e3919061295d565b610886565b005b6102f261099e565b005b34801561030057600080fd5b5061031b60048036038101906103169190612999565b610afe565b005b34801561032957600080fd5b50610332610b23565b60405161033f9190612ed2565b60405180910390f35b34801561035457600080fd5b5061035d610b36565b60405161036a91906131cf565b60405180910390f35b34801561037f57600080fd5b50610388610b43565b60405161039591906131cf565b60405180910390f35b3480156103aa57600080fd5b506103c560048036038101906103c09190612857565b610b49565b005b3480156103d357600080fd5b506103ee60048036038101906103e9919061295d565b610ba9565b6040516103fb91906131cf565b60405180910390f35b34801561041057600080fd5b50610419610c4e565b005b34801561042757600080fd5b50610442600480360381019061043d9190612857565b610d18565b005b34801561045057600080fd5b5061046b60048036038101906104669190612a14565b610d38565b60405161047891906131cf565b60405180910390f35b610489610dcf565b005b34801561049757600080fd5b506104a0610f2e565b6040516104ad91906131cf565b60405180910390f35b3480156104c257600080fd5b506104dd60048036038101906104d89190612a14565b610f34565b6040516104ea9190612e6b565b60405180910390f35b3480156104ff57600080fd5b5061051a600480360381019061051591906127f2565b610fe6565b60405161052791906131cf565b60405180910390f35b34801561053c57600080fd5b5061054561109e565b60405161055291906131cf565b60405180910390f35b34801561056757600080fd5b506105706110a4565b005b34801561057e57600080fd5b506105876110b8565b6040516105949190612e6b565b60405180910390f35b3480156105a957600080fd5b506105b26110e2565b6040516105bf9190612eed565b60405180910390f35b3480156105d457600080fd5b506105ef60048036038101906105ea9190612921565b611174565b005b3480156105fd57600080fd5b50610618600480360381019061061391906128a6565b61118a565b005b34801561062657600080fd5b50610641600480360381019061063c9190612a14565b6111ec565b60405161064e9190612eed565b60405180910390f35b34801561066357600080fd5b5061066c611254565b60405161067991906131cf565b60405180910390f35b34801561068e57600080fd5b506106a960048036038101906106a4919061281b565b61125a565b6040516106b69190612ed2565b60405180910390f35b3480156106cb57600080fd5b506106e660048036038101906106e191906127f2565b6112ee565b005b60007f780e9d63000000000000000000000000000000000000000000000000000000007bffffffffffffffffffffffffffffffffffffffffffffffffffffffff1916827bffffffffffffffffffffffffffffffffffffffffffffffffffffffff1916148061075b575061075a82611372565b5b9050919050565b601060149054906101000a900460ff1681565b61077d611454565b6001601060146101000a81548160ff02191690831515021790555061012c426107a6919061328e565b601181905550565b6060600080546107bd906133ff565b80601f01602080910402602001604051908101604052809291908181526020018280546107e9906133ff565b80156108365780601f1061080b57610100808354040283529160200191610836565b820191906000526020600020905b81548152906001019060200180831161081957829003601f168201915b5050505050905090565b600061084b826114d2565b6004600083815260200190815260200160002060009054906101000a900473ffffffffffffffffffffffffffffffffffffffff169050919050565b600061089182610f34565b90508073ffffffffffffffffffffffffffffffffffffffff168373ffffffffffffffffffffffffffffffffffffffff161415610902576040517f08c379a00000000000000000000000000000000000000000000000000000000081526004016108f99061312f565b60405180910390fd5b8073ffffffffffffffffffffffffffffffffffffffff1661092161151d565b73ffffffffffffffffffffffffffffffffffffffff161480610950575061094f8161094a61151d565b61125a565b5b61098f576040517f08c379a00000000000000000000000000000000000000000000000000000000081526004016109869061306f565b60405180910390fd5b6109998383611525565b505050565b600d60009054906101000a900460ff16156109ee576040517f08c379a00000000000000000000000000000000000000000000000000000000081526004016109e5906130ef565b60405180910390fd5b601060149054906101000a900460ff168015610a0c57506011544210155b610a4b576040517f08c379a0000000000000000000000000000000000000000000000000000000008152600401610a42906131af565b60405180910390fd5b600e54600f5410610a91576040517f08c379a0000000000000000000000000000000000000000000000000000000008152600401610a88906130cf565b60405180910390fd5b600c54341015610ad6576040517f08c379a0000000000000000000000000000000000000000000000000000000008152600401610acd9061314f565b60405180910390fd5b6001600f6000828254610ae9919061328e565b92505081905550610afc33600f546115de565b565b610b06611454565b80600d60006101000a81548160ff02191690831515021790555050565b600d60009054906101000a900460ff1681565b6000600880549050905090565b600c5481565b610b5a610b5461151d565b826115fc565b610b99576040517f08c379a0000000000000000000000000000000000000000000000000000000008152600401610b909061318f565b60405180910390fd5b610ba4838383611691565b505050565b6000610bb483610fe6565b8210610bf5576040517f08c379a0000000000000000000000000000000000000000000000000000000008152600401610bec90612f0f565b60405180910390fd5b600660008473ffffffffffffffffffffffffffffffffffffffff1673ffffffffffffffffffffffffffffffffffffffff168152602001908152602001600020600083815260200190815260200160002054905092915050565b610c56611454565b6000610c606110b8565b9050600047905060008273ffffffffffffffffffffffffffffffffffffffff1682604051610c8d90612e56565b60006040518083038185875af1925050503d8060008114610cca576040519150601f19603f3d011682016040523d82523d6000602084013e610ccf565b606091505b5050905080610d13576040517f08c379a0000000000000000000000000000000000000000000000000000000008152600401610d0a90612fef565b60405180910390fd5b505050565b610d338383836040518060200160405280600081525061118a565b505050565b6000610d42610b36565b8210610d83576040517f08c379a0000000000000000000000000000000000000000000000000000000008152600401610d7a9061316f565b60405180910390fd5b60088281548110610dbd577f4e487b7100000000000000000000000000000000000000000000000000000000600052603260045260246000fd5b90600052602060002001549050919050565b600d60009054906101000a900460ff1615610e1f576040517f08c379a0000000000000000000000000000000000000000000000000000000008152600401610e16906130ef565b60405180910390fd5b601060149054906101000a900460ff168015610e3c575060115442105b610e7b576040517f08c379a0000000000000000000000000000000000000000000000000000000008152600401610e7290612fcf565b60405180910390fd5b600e54600f5410610ec1576040517f08c379a0000000000000000000000000000000000000000000000000000000008152600401610eb890612faf565b60405180910390fd5b600c54341015610f06576040517f08c379a0000000000000000000000000000000000000000000000000000000008152600401610efd9061314f565b60405180910390fd5b6001600f6000828254610f19919061328e565b92505081905550610f2c33600f546115de565b565b600e5481565b6000806002600084815260200190815260200160002060009054906101000a900473ffffffffffffffffffffffffffffffffffffffff169050600073ffffffffffffffffffffffffffffffffffffffff168173ffffffffffffffffffffffffffffffffffffffff161415610fdd576040517f08c379a0000000000000000000000000000000000000000000000000000000008152600401610fd49061310f565b60405180910390fd5b80915050919050565b60008073ffffffffffffffffffffffffffffffffffffffff168273ffffffffffffffffffffffffffffffffffffffff161415611057576040517f08c379a000000000000000000000000000000000000000000000000000000000815260040161104e9061304f565b60405180910390fd5b600360008373ffffffffffffffffffffffffffffffffffffffff1673ffffffffffffffffffffffffffffffffffffffff168152602001908152602001600020549050919050565b600f5481565b6110ac611454565b6110b660006118f8565b565b6000600a60009054906101000a900473ffffffffffffffffffffffffffffffffffffffff16905090565b6060600180546110f1906133ff565b80601f016020809104026020016040519081016040528092919081815260200182805461111d906133ff565b801561116a5780601f1061113f5761010080835404028352916020019161116a565b820191906000526020600020905b81548152906001019060200180831161114d57829003601f168201915b5050505050905090565b61118661117f61151d565b83836119be565b5050565b61119b61119561151d565b836115fc565b6111da576040517f08c379a00000000000000000000000000000000000000000000000000000000081526004016111d19061318f565b60405180910390fd5b6111e684848484611b2b565b50505050565b60606111f7826114d2565b6000611201611b87565b90506000815111611221576040518060200160405280600081525061124c565b8061122b84611c19565b60405160200161123c929190612e32565b6040516020818303038152906040525b915050919050565b60115481565b6000600560008473ffffffffffffffffffffffffffffffffffffffff1673ffffffffffffffffffffffffffffffffffffffff16815260200190815260200160002060008373ffffffffffffffffffffffffffffffffffffffff1673ffffffffffffffffffffffffffffffffffffffff16815260200190815260200160002060009054906101000a900460ff16905092915050565b6112f6611454565b600073ffffffffffffffffffffffffffffffffffffffff168173ffffffffffffffffffffffffffffffffffffffff161415611366576040517f08c379a000000000000000000000000000000000000000000000000000000000815260040161135d90612f4f565b60405180910390fd5b61136f816118f8565b50565b60007f80ac58cd000000000000000000000000000000000000000000000000000000007bffffffffffffffffffffffffffffffffffffffffffffffffffffffff1916827bffffffffffffffffffffffffffffffffffffffffffffffffffffffff1916148061143d57507f5b5e139f000000000000000000000000000000000000000000000000000000007bffffffffffffffffffffffffffffffffffffffffffffffffffffffff1916827bffffffffffffffffffffffffffffffffffffffffffffffffffffffff1916145b8061144d575061144c82611dc6565b5b9050919050565b61145c61151d565b73ffffffffffffffffffffffffffffffffffffffff1661147a6110b8565b73ffffffffffffffffffffffffffffffffffffffff16146114d0576040517f08c379a00000000000000000000000000000000000000000000000000000000081526004016114c7906130af565b60405180910390fd5b565b6114db81611e30565b61151a576040517f08c379a00000000000000000000000000000000000000000000000000000000081526004016115119061310f565b60405180910390fd5b50565b600033905090565b816004600083815260200190815260200160002060006101000a81548173ffffffffffffffffffffffffffffffffffffffff021916908373ffffffffffffffffffffffffffffffffffffffff160217905550808273ffffffffffffffffffffffffffffffffffffffff1661159883610f34565b73ffffffffffffffffffffffffffffffffffffffff167f8c5be1e5ebec7d5bd14f71427d1e84f3dd0314c0f7b2291e5b200ac8c7c3b92560405160405180910390a45050565b6115f8828260405180602001604052806000815250611e9c565b5050565b60008061160883610f34565b90508073ffffffffffffffffffffffffffffffffffffffff168473ffffffffffffffffffffffffffffffffffffffff16148061164a5750611649818561125a565b5b8061168857508373ffffffffffffffffffffffffffffffffffffffff1661167084610840565b73ffffffffffffffffffffffffffffffffffffffff16145b91505092915050565b8273ffffffffffffffffffffffffffffffffffffffff166116b182610f34565b73ffffffffffffffffffffffffffffffffffffffff1614611707576040517f08c379a00000000000000000000000000000000000000000000000000000000081526004016116fe90612f6f565b60405180910390fd5b600073ffffffffffffffffffffffffffffffffffffffff168273ffffffffffffffffffffffffffffffffffffffff161415611777576040517f08c379a000000000000000000000000000000000000000000000000000000000815260040161176e9061300f565b60405180910390fd5b611782838383611ef7565b61178d600082611525565b6001600360008573ffffffffffffffffffffffffffffffffffffffff1673ffffffffffffffffffffffffffffffffffffffff16815260200190815260200160002060008282546117dd9190613315565b925050819055506001600360008473ffffffffffffffffffffffffffffffffffffffff1673ffffffffffffffffffffffffffffffffffffffff1681526020019081526020016000206000828254611834919061328e565b92505081905550816002600083815260200190815260200160002060006101000a81548173ffffffffffffffffffffffffffffffffffffffff021916908373ffffffffffffffffffffffffffffffffffffffff160217905550808273ffffffffffffffffffffffffffffffffffffffff168473ffffffffffffffffffffffffffffffffffffffff167fddf252ad1be2c89b69c2b068fc378daa952ba7f163c4a11628f55a4df523b3ef60405160405180910390a46118f383838361200b565b505050565b6000600a60009054906101000a900473ffffffffffffffffffffffffffffffffffffffff16905081600a60006101000a81548173ffffffffffffffffffffffffffffffffffffffff021916908373ffffffffffffffffffffffffffffffffffffffff1602179055508173ffffffffffffffffffffffffffffffffffffffff168173ffffffffffffffffffffffffffffffffffffffff167f8be0079c531659141344cd1fd0a4f28419497f9722a3daafe3b4186f6b6457e060405160405180910390a35050565b8173ffffffffffffffffffffffffffffffffffffffff168373ffffffffffffffffffffffffffffffffffffffff161415611a2d576040517f08c379a0000000000000000000000000000000000000000000000000000000008152600401611a249061302f565b60405180910390fd5b80600560008573ffffffffffffffffffffffffffffffffffffffff1673ffffffffffffffffffffffffffffffffffffffff16815260200190815260200160002060008473ffffffffffffffffffffffffffffffffffffffff1673ffffffffffffffffffffffffffffffffffffffff16815260200190815260200160002060006101000a81548160ff0219169083151502179055508173ffffffffffffffffffffffffffffffffffffffff168373ffffffffffffffffffffffffffffffffffffffff167f17307eab39ab6107e8899845ad3d59bd9653f200f220920489ca2b5937696c3183604051611b1e9190612ed2565b60405180910390a3505050565b611b36848484611691565b611b4284848484612010565b611b81576040517f08c379a0000000000000000000000000000000000000000000000000000000008152600401611b7890612f2f565b60405180910390fd5b50505050565b6060600b8054611b96906133ff565b80601f0160208091040260200160405190810160405280929190818152602001828054611bc2906133ff565b8015611c0f5780601f10611be457610100808354040283529160200191611c0f565b820191906000526020600020905b815481529060010190602001808311611bf257829003601f168201915b5050505050905090565b60606000821415611c61576040518060400160405280600181526020017f30000000000000000000000000000000000000000000000000000000000000008152509050611dc1565b600082905060005b60008214611c93578080611c7c90613462565b915050600a82611c8c91906132e4565b9150611c69565b60008167ffffffffffffffff811115611cd5577f4e487b7100000000000000000000000000000000000000000000000000000000600052604160045260246000fd5b6040519080825280601f01601f191660200182016040528015611d075781602001600182028036833780820191505090505b5090505b60008514611dba57600182611d209190613315565b9150600a85611d2f91906134ab565b6030611d3b919061328e565b60f81b818381518110611d77577f4e487b7100000000000000000000000000000000000000000000000000000000600052603260045260246000fd5b60200101907effffffffffffffffffffffffffffffffffffffffffffffffffffffffffffff1916908160001a905350600a85611db391906132e4565b9450611d0b565b8093505050505b919050565b60007f01ffc9a7000000000000000000000000000000000000000000000000000000007bffffffffffffffffffffffffffffffffffffffffffffffffffffffff1916827bffffffffffffffffffffffffffffffffffffffffffffffffffffffff1916149050919050565b60008073ffffffffffffffffffffffffffffffffffffffff166002600084815260200190815260200160002060009054906101000a900473ffffffffffffffffffffffffffffffffffffffff1673ffffffffffffffffffffffffffffffffffffffff1614159050919050565b611ea683836121a7565b611eb36000848484612010565b611ef2576040517f08c379a0000000000000000000000000000000000000000000000000000000008152600401611ee990612f2f565b60405180910390fd5b505050565b611f02838383612381565b600073ffffffffffffffffffffffffffffffffffffffff168373ffffffffffffffffffffffffffffffffffffffff161415611f4557611f4081612386565b611f84565b8173ffffffffffffffffffffffffffffffffffffffff168373ffffffffffffffffffffffffffffffffffffffff1614611f8357611f8283826123cf565b5b5b600073ffffffffffffffffffffffffffffffffffffffff168273ffffffffffffffffffffffffffffffffffffffff161415611fc757611fc28161253c565b612006565b8273ffffffffffffffffffffffffffffffffffffffff168273ffffffffffffffffffffffffffffffffffffffff161461200557612004828261267f565b5b5b505050565b505050565b60006120318473ffffffffffffffffffffffffffffffffffffffff166126fe565b1561219a578373ffffffffffffffffffffffffffffffffffffffff1663150b7a0261205a61151d565b8786866040518563ffffffff1660e01b815260040161207c9493929190612e86565b602060405180830381600087803b15801561209657600080fd5b505af19250505080156120c757506040513d601f19601f820116820180604052508101906120c491906129eb565b60015b61214a573d80600081146120f7576040519150601f19603f3d011682016040523d82523d6000602084013e6120fc565b606091505b50600081511415612142576040517f08c379a000000000000000000000000000000000000000000000000000000000815260040161213990612f2f565b60405180910390fd5b805181602001fd5b63150b7a0260e01b7bffffffffffffffffffffffffffffffffffffffffffffffffffffffff1916817bffffffffffffffffffffffffffffffffffffffffffffffffffffffff19161491505061219f565b600190505b949350505050565b600073ffffffffffffffffffffffffffffffffffffffff168273ffffffffffffffffffffffffffffffffffffffff161415612217576040517f08c379a000000000000000000000000000000000000000000000000000000000815260040161220e9061308f565b60405180910390fd5b61222081611e30565b15612260576040517f08c379a000000000000000000000000000000000000000000000000000000000815260040161225790612f8f565b60405180910390fd5b61226c60008383611ef7565b6001600360008473ffffffffffffffffffffffffffffffffffffffff1673ffffffffffffffffffffffffffffffffffffffff16815260200190815260200160002060008282546122bc919061328e565b92505081905550816002600083815260200190815260200160002060006101000a81548173ffffffffffffffffffffffffffffffffffffffff021916908373ffffffffffffffffffffffffffffffffffffffff160217905550808273ffffffffffffffffffffffffffffffffffffffff16600073ffffffffffffffffffffffffffffffffffffffff167fddf252ad1be2c89b69c2b068fc378daa952ba7f163c4a11628f55a4df523b3ef60405160405180910390a461237d6000838361200b565b5050565b505050565b6008805490506009600083815260200190815260200160002081905550600881908060018154018082558091505060019003906000526020600020016000909190919091505550565b600060016123dc84610fe6565b6123e69190613315565b90506000600760008481526020019081526020016000205490508181146124cb576000600660008673ffffffffffffffffffffffffffffffffffffffff1673ffffffffffffffffffffffffffffffffffffffff168152602001908152602001600020600084815260200190815260200160002054905080600660008773ffffffffffffffffffffffffffffffffffffffff1673ffffffffffffffffffffffffffffffffffffffff168152602001908152602001600020600084815260200190815260200160002081905550816007600083815260200190815260200160002081905550505b6007600084815260200190815260200160002060009055600660008573ffffffffffffffffffffffffffffffffffffffff1673ffffffffffffffffffffffffffffffffffffffff16815260200190815260200160002060008381526020019081526020016000206000905550505050565b600060016008805490506125509190613315565b90506000600960008481526020019081526020016000205490506000600883815481106125a6577f4e487b7100000000000000000000000000000000000000000000000000000000600052603260045260246000fd5b9060005260206000200154905080600883815481106125ee577f4e487b7100000000000000000000000000000000000000000000000000000000600052603260045260246000fd5b906000526020600020018190555081600960008381526020019081526020016000208190555060096000858152602001908152602001600020600090556008805480612663577f4e487b7100000000000000000000000000000000000000000000000000000000600052603160045260246000fd5b6001900381819060005260206000200160009055905550505050565b600061268a83610fe6565b905081600660008573ffffffffffffffffffffffffffffffffffffffff1673ffffffffffffffffffffffffffffffffffffffff168152602001908152602001600020600083815260200190815260200160002081905550806007600084815260200190815260200160002081905550505050565b6000808273ffffffffffffffffffffffffffffffffffffffff163b119050919050565b600061273461272f8461320f565b6131ea565b90508281526020810184848401111561274c57600080fd5b6127578482856133bd565b509392505050565b60008135905061276e81613afa565b92915050565b60008135905061278381613b11565b92915050565b60008135905061279881613b28565b92915050565b6000815190506127ad81613b28565b92915050565b600082601f8301126127c457600080fd5b81356127d4848260208601612721565b91505092915050565b6000813590506127ec81613b3f565b92915050565b60006020828403121561280457600080fd5b60006128128482850161275f565b91505092915050565b6000806040838503121561282e57600080fd5b600061283c8582860161275f565b925050602061284d8582860161275f565b9150509250929050565b60008060006060848603121561286c57600080fd5b600061287a8682870161275f565b935050602061288b8682870161275f565b925050604061289c868287016127dd565b9150509250925092565b600080600080608085870312156128bc57600080fd5b60006128ca8782880161275f565b94505060206128db8782880161275f565b93505060406128ec878288016127dd565b925050606085013567ffffffffffffffff81111561290957600080fd5b612915878288016127b3565b91505092959194509250565b6000806040838503121561293457600080fd5b60006129428582860161275f565b925050602061295385828601612774565b9150509250929050565b6000806040838503121561297057600080fd5b600061297e8582860161275f565b925050602061298f858286016127dd565b9150509250929050565b6000602082840312156129ab57600080fd5b60006129b984828501612774565b91505092915050565b6000602082840312156129d457600080fd5b60006129e284828501612789565b91505092915050565b6000602082840312156129fd57600080fd5b6000612a0b8482850161279e565b91505092915050565b600060208284031215612a2657600080fd5b6000612a34848285016127dd565b91505092915050565b612a4681613349565b82525050565b612a558161335b565b82525050565b6000612a6682613240565b612a708185613256565b9350612a808185602086016133cc565b612a8981613598565b840191505092915050565b6000612a9f8261324b565b612aa98185613272565b9350612ab98185602086016133cc565b612ac281613598565b840191505092915050565b6000612ad88261324b565b612ae28185613283565b9350612af28185602086016133cc565b80840191505092915050565b6000612b0b602b83613272565b9150612b16826135a9565b604082019050919050565b6000612b2e603283613272565b9150612b39826135f8565b604082019050919050565b6000612b51602683613272565b9150612b5c82613647565b604082019050919050565b6000612b74602583613272565b9150612b7f82613696565b604082019050919050565b6000612b97601c83613272565b9150612ba2826136e5565b602082019050919050565b6000612bba602483613272565b9150612bc58261370e565b604082019050919050565b6000612bdd601683613272565b9150612be88261375d565b602082019050919050565b6000612c00601483613272565b9150612c0b82613786565b602082019050919050565b6000612c23602483613272565b9150612c2e826137af565b604082019050919050565b6000612c46601983613272565b9150612c51826137fe565b602082019050919050565b6000612c69602983613272565b9150612c7482613827565b604082019050919050565b6000612c8c603e83613272565b9150612c9782613876565b604082019050919050565b6000612caf602083613272565b9150612cba826138c5565b602082019050919050565b6000612cd2602083613272565b9150612cdd826138ee565b602082019050919050565b6000612cf5602283613272565b9150612d0082613917565b604082019050919050565b6000612d18601983613272565b9150612d2382613966565b602082019050919050565b6000612d3b601883613272565b9150612d468261398f565b602082019050919050565b6000612d5e602183613272565b9150612d69826139b8565b604082019050919050565b6000612d81601983613272565b9150612d8c82613a07565b602082019050919050565b6000612da4600083613267565b9150612daf82613a30565b600082019050919050565b6000612dc7602c83613272565b9150612dd282613a33565b604082019050919050565b6000612dea602e83613272565b9150612df582613a82565b604082019050919050565b6000612e0d601983613272565b9150612e1882613ad1565b602082019050919050565b612e2c816133b3565b82525050565b6000612e3e8285612acd565b9150612e4a8284612acd565b91508190509392505050565b6000612e6182612d97565b9150819050919050565b6000602082019050612e806000830184612a3d565b92915050565b6000608082019050612e9b6000830187612a3d565b612ea86020830186612a3d565b612eb56040830185612e23565b8181036060830152612ec78184612a5b565b905095945050505050565b6000602082019050612ee76000830184612a4c565b92915050565b60006020820190508181036000830152612f078184612a94565b905092915050565b60006020820190508181036000830152612f2881612afe565b9050919050565b60006020820190508181036000830152612f4881612b21565b9050919050565b60006020820190508181036000830152612f6881612b44565b9050919050565b60006020820190508181036000830152612f8881612b67565b9050919050565b60006020820190508181036000830152612fa881612b8a565b9050919050565b60006020820190508181036000830152612fc881612bad565b9050919050565b60006020820190508181036000830152612fe881612bd0565b9050919050565b6000602082019050818103600083015261300881612bf3565b9050919050565b6000602082019050818103600083015261302881612c16565b9050919050565b6000602082019050818103600083015261304881612c39565b9050919050565b6000602082019050818103600083015261306881612c5c565b9050919050565b6000602082019050818103600083015261308881612c7f565b9050919050565b600060208201905081810360008301526130a881612ca2565b9050919050565b600060208201905081810360008301526130c881612cc5565b9050919050565b600060208201905081810360008301526130e881612ce8565b9050919050565b6000602082019050818103600083015261310881612d0b565b9050919050565b6000602082019050818103600083015261312881612d2e565b9050919050565b6000602082019050818103600083015261314881612d51565b9050919050565b6000602082019050818103600083015261316881612d74565b9050919050565b6000602082019050818103600083015261318881612dba565b9050919050565b600060208201905081810360008301526131a881612ddd565b9050919050565b600060208201905081810360008301526131c881612e00565b9050919050565b60006020820190506131e46000830184612e23565b92915050565b60006131f4613205565b90506132008282613431565b919050565b6000604051905090565b600067ffffffffffffffff82111561322a57613229613569565b5b61323382613598565b9050602081019050919050565b600081519050919050565b600081519050919050565b600082825260208201905092915050565b600081905092915050565b600082825260208201905092915050565b600081905092915050565b6000613299826133b3565b91506132a4836133b3565b9250827fffffffffffffffffffffffffffffffffffffffffffffffffffffffffffffffff038211156132d9576132d86134dc565b5b828201905092915050565b60006132ef826133b3565b91506132fa836133b3565b92508261330a5761330961350b565b5b828204905092915050565b6000613320826133b3565b915061332b836133b3565b92508282101561333e5761333d6134dc565b5b828203905092915050565b600061335482613393565b9050919050565b60008115159050919050565b60007fffffffff0000000000000000000000000000000000000000000000000000000082169050919050565b600073ffffffffffffffffffffffffffffffffffffffff82169050919050565b6000819050919050565b82818337600083830152505050565b60005b838110156133ea5780820151818401526020810190506133cf565b838111156133f9576000848401525b50505050565b6000600282049050600182168061341757607f821691505b6020821081141561342b5761342a61353a565b5b50919050565b61343a82613598565b810181811067ffffffffffffffff8211171561345957613458613569565b5b80604052505050565b600061346d826133b3565b91507fffffffffffffffffffffffffffffffffffffffffffffffffffffffffffffffff8214156134a05761349f6134dc565b5b600182019050919050565b60006134b6826133b3565b91506134c1836133b3565b9250826134d1576134d061350b565b5b828206905092915050565b7f4e487b7100000000000000000000000000000000000000000000000000000000600052601160045260246000fd5b7f4e487b7100000000000000000000000000000000000000000000000000000000600052601260045260246000fd5b7f4e487b7100000000000000000000000000000000000000000000000000000000600052602260045260246000fd5b7f4e487b7100000000000000000000000000000000000000000000000000000000600052604160045260246000fd5b6000601f19601f8301169050919050565b7f455243373231456e756d657261626c653a206f776e657220696e646578206f7560008201527f74206f6620626f756e6473000000000000000000000000000000000000000000602082015250565b7f4552433732313a207472616e7366657220746f206e6f6e20455243373231526560008201527f63656976657220696d706c656d656e7465720000000000000000000000000000602082015250565b7f4f776e61626c653a206e6577206f776e657220697320746865207a65726f206160008201527f6464726573730000000000000000000000000000000000000000000000000000602082015250565b7f4552433732313a207472616e736665722066726f6d20696e636f72726563742060008201527f6f776e6572000000000000000000000000000000000000000000000000000000602082015250565b7f4552433732313a20746f6b656e20616c7265616479206d696e74656400000000600082015250565b7f4578636565646564206d6178696d756d204661697a20467269656e647320737560008201527f70706c7900000000000000000000000000000000000000000000000000000000602082015250565b7f50726573616c65206973206e6f742072756e6e696e6700000000000000000000600082015250565b7f4661696c656420746f2073656e64204574686572000000000000000000000000600082015250565b7f4552433732313a207472616e7366657220746f20746865207a65726f2061646460008201527f7265737300000000000000000000000000000000000000000000000000000000602082015250565b7f4552433732313a20617070726f766520746f2063616c6c657200000000000000600082015250565b7f4552433732313a2061646472657373207a65726f206973206e6f74206120766160008201527f6c6964206f776e65720000000000000000000000000000000000000000000000602082015250565b7f4552433732313a20617070726f76652063616c6c6572206973206e6f7420746f60008201527f6b656e206f776e6572206e6f7220617070726f76656420666f7220616c6c0000602082015250565b7f4552433732313a206d696e7420746f20746865207a65726f2061646472657373600082015250565b7f4f776e61626c653a2063616c6c6572206973206e6f7420746865206f776e6572600082015250565b7f457863656564206d6178696d756d204661697a20467269656e6473207375707060008201527f6c79000000000000000000000000000000000000000000000000000000000000602082015250565b7f436f6e74726163742063757272656e746c792070617573656400000000000000600082015250565b7f4552433732313a20696e76616c696420746f6b656e2049440000000000000000600082015250565b7f4552433732313a20617070726f76616c20746f2063757272656e74206f776e6560008201527f7200000000000000000000000000000000000000000000000000000000000000602082015250565b7f45746865722073656e74206973206e6f7420636f727265637400000000000000600082015250565b50565b7f455243373231456e756d657261626c653a20676c6f62616c20696e646578206f60008201527f7574206f6620626f756e64730000000000000000000000000000000000000000602082015250565b7f4552433732313a2063616c6c6572206973206e6f7420746f6b656e206f776e6560008201527f72206e6f7220617070726f766564000000000000000000000000000000000000602082015250565b7f50726573616c6520686173206e6f7420656e6465642079657400000000000000600082015250565b613b0381613349565b8114613b0e57600080fd5b50565b613b1a8161335b565b8114613b2557600080fd5b50565b613b3181613367565b8114613b3c57600080fd5b50565b613b48816133b3565b8114613b5357600080fd5b5056fea26469706673582212202ec29a275cd699e59e26e344f5958120a52a513efd516796cfe53c4c3c8576dc64736f6c63430008040033",
  "linkReferences": {},
  "deployedLinkReferences": {}
}